:1000000000700000150100006100000069000000A0
:1000100000000000000000000000000000000000E0
:10002000000000000000000000000000710000005F
:100030000000000000000000790000000000000047
:10004000190B00000000000000000000000000008C
:1000500000000000000000000000000000000000A0
:1000600080B500AFFEE7C04680B500AFFEE7C046F2
:1000700080B500AFFEE7C04680B500AFFEE7C046E2
:1000800080B586B000AF786039607B687B613B6883
:100090003B617B691B78DBB2DAB20F23FB181A7065
:1000A0003B69BB60BB680133BB60EEE70160704732
:1000B000006870470EB58B4013400168D243114071
:1000C000194301600EBD00681040C84070470180B0
:1000D0007047008870470EB58B4013400188D243AB
:1000E0001140194301800EBD00881040C840704780
:1000F00001707047007870470EB58B40134001784F
:10010000D2431140194301700EBD00781040C84021
:100110007047000080B588B000AF214BFB61214BD8
:10012000BB60214BBB61BA69FB699A420CD007E006
:10013000BB691A1DBA61FA69111DF96112681A606A
:10014000BA69BB689A42F3D9184B7B61184B7B6044
:10015000184B3B613A697B699A420CD007E03B69D6
:100160001A1D3A617A69111D796112681A603A693B
:100170007B689A42F3D9104BFB60104B3B603A68A6
:10018000FB689A4209D904E0FB681A1DFA60002254
:100190001A60FA683B689A42F6D900F0F7FCFEE76D
:1001A00000000000340E000000000000340E0000CB
:1001B000380E0000340E0000380E0000600E000003
:1001C00080B500AF074A01235B42101C191CFFF7E2
:1001D0006DFF054A01235B42101C191CFFF766FFE7
:1001E000BD4680BD80E100E080E200E080B584B0E3
:1001F00000AF78607B6801229A40131CFB60044AC0
:10020000FB68101C191CFFF751FFBD4604B080BDF0
:1002100000E100E080B584B000AF78607B68012227
:100220009A40131CFB60044AFB68101C191CFFF762
:100230003DFFBD4604B080BD80E200E090B58FB0C8
:1002400000AFF860B9603B60FB1D1A703E4B1B6845
:10025000FA689A4210D11423FB183C4A13CA13C3FC
:1002600013CA13C303CA03C312881A801423FB18CA
:10027000181C2121FFF704FF3B68092B10D9142318
:10028000FB18324A13CA13C313CA13C303CA03C3E6
:1002900012881A801423FB18181C2221FFF7F0FE85
:1002A000BB6C002B10D11423FB18284A13CA13C3AC
:1002B00013CA13C303CA03C312881A801423FB187A
:1002C000181C2321FFF7DCFEFB68BA681A60BB68C4
:1002D0000833181C012102220023FFF7EBFEBB6844
:1002E0000833181C002101220023FFF7E3FEBB683E
:1002F0001033181C0121FFF7D9FEBB680C331A1C00
:100300003B68101C191CFFF7D1FEBA68BB6C101CAF
:10031000191CFFF7CBFEFB1D1B78002B08D1BB6817
:100320000833181C022104220023FFF7C3FE07E054
:10033000BB680833181C022104220123FFF7BAFE10
:10034000BD460FB090BDC046380E0000F00D000055
:1003500090B58DB000AF7860104B1B687A689A42F8
:1003600010D10C23FB180E4A13CA13C313CA13C3AC
:1003700003CA03C312881A800C23FB18181C4A21D5
:10038000FFF77EFE7B681B680833181C00210122E2
:100390000123FFF78FFEBD460DB090BD380E000063
:1003A000F00D000090B58DB000AF7860104B1B6869
:1003B0007A689A4210D10C23FB180E4A13CA13C351
:1003C00013CA13C303CA03C312881A800C23FB1871
:1003D000181C6921FFF754FE7B681B680833181C42
:1003E000012102220123FFF765FEBD460DB090BD3D
:1003F000380E0000F00D000090B58DB000AF7860B1
:100400000F4B1B687A689A4210D10C23FB180D4AD7
:1004100013CA13C313CA13C303CA03C312881A80AF
:100420000C23FB18181C7821FFF72AFE7B681B6839
:100430001033181C0121FFF739FEBD460DB090BDE9
:10044000380E0000F00D000090B58FB000AFF860DE
:10045000B960FB1D1A703723FB1800221A70BB68A5
:100460003B63FB68BA681A60FB68FA1D12781A7160
:100470003723FB1800221A70BB683B630EE03B6B0E
:10048000181C0021FFF734FE3B6B04333B6337231A
:10049000FB183722BA18127801321A703723FB186A
:1004A0001B78012BEBD9FB681B79012B0FD0022B9A
:1004B00002D0002B1CD038E0FB681B6880331A1C6C
:1004C00001235B42101C191CFFF7F0FD3DE0FB68A7
:1004D0001B6880331E4A181C111CFFF7F8FDFB68CF
:1004E0001B6884331A4A181C111CFFF7F0FD2CE01E
:1004F000FB681B688033181CFF21FFF7F9FDFB68C0
:100500001B688433181CFF21FFF7F2FDFB681B6892
:100510008833181CFF21FFF7EBFDFB681B688C3349
:10052000181CFF21FFF7E4FD0FE01023FB18094A18
:1005300013CA13C313CA13C303CA03C31023FB187C
:10054000181C4621FFF79CFDC046BD460FB090BD6C
:10055000FFFF0000140E000090B58FB000AFF860F0
:100560007A600B23FB180A1C1A700B23FB181B78EC
:10057000012B0ED91423FB18124A13CA13C313CA32
:1005800013C303CA03C31423FB18181C5621FFF717
:1005900077FD0B23FB181B78012B10D8FB681B6819
:1005A0007B630B23FB181B789B001A1C7B6B9B182F
:1005B0007B637A6B7B68101C191CFFF777FDBD46C7
:1005C0000FB090BD140E000090B58FB000AF7860F2
:1005D000081C111CFB1C021C1A70BB1C0A1C1A7084
:1005E000FB1C1B78012B0ED90823FB188A4A13CA5F
:1005F00013C313CA13C303CA03C30823FB18181C6D
:10060000EA21FFF73DFD7B681B79012B2FD0022BE0
:1006100003D0002B00D18AE0E9E07B681B68A0339F
:10062000181CFFF745FD031C7B63BB1C1B78002BCC
:100630000AD1FB1C1B7801229A40131CDB431A1CB5
:100640007B6B13407B6308E0FB1C1B7801229A4004
:10065000131C1A1C7B6B13437B637B681B68A033E2
:100660001A1C7B6B101C191CFFF720FDD1E07B6866
:100670001B68FA1C12781209D2B292009B18A033A0
:10068000FB623223FC18FB6A181CFFF722FD031CD7
:100690002380BB1C1B78002B13D1FB1C1B780F2263
:1006A000134001229A40131C9BB2DB4399B23223C0
:1006B000FB181A880B1C13409AB23223FB181A80BD
:1006C0000FE0FB1C1B780F22134001229A40131CE1
:1006D0009AB23223FB181B8813439AB23223FB18B9
:1006E0001A803223FB181B88FA6A101C191CFFF7AA
:1006F000EEFCFB6A181CFFF7ECFC031C1A1C3223EF
:10070000FB181B88934211D00823FB18424A13CAD6
:1007100013C313CA13C303CA03C30823FA189023CD
:100720005B00101C191CFFF7ABFC72E071E07B68EA
:100730001B68FA1C1278D208D2B292009B18A03320
:10074000BB623123FC18BB6A181CFFF7D3FC031CE7
:100750002370BB1C1B78002B13D1FB1C1B780722BA
:10076000134001229A40131CDBB2DB43D9B2312380
:10077000FB181A780B1C1340DAB23123FB181A70DD
:100780000FE0FB1C1B780722134001229A40131C28
:10079000DAB23123FB181B781343DAB23123FB188A
:1007A0001A703123FB181B78BA6A101C191CFFF74A
:1007B0009FFCBB6A181CFFF79DFC031C1A1C31230D
:1007C000FB181B78934211D00823FB18124A13CA56
:1007D00013C313CA13C303CA03C30823FA183C2361
:1007E000FF33101C191CFFF74BFC12E011E008232B
:1007F000FB18094A13CA13C313CA13C303CA03C39A
:100800000823FA18A0235B00101C191CFFF738FC02
:10081000C046BD460FB090BD140E000080B584B038
:1008200000AF78607B68FB600B23FB1800221A7016
:10083000FB68181C0221FFF739FCFB680433181C05
:100840000F21FFF733FCFB68181C0321FFF72EFC78
:10085000C046FB680433181CFFF72AFC021C012366
:100860001340F6D0FB680433181C0F21FFF71EFC61
:10087000BD4604B080BDC04680B584B000AF78608E
:100880007B68FB600B23FB1800221A700B23FB18FC
:1008900000221A707B68FB600EE0FB68181C0021C8
:1008A000FFF704FCFB680433FB600B23FB180B22EF
:1008B000BA18127801321A700B23FB181B78092B17
:1008C000EBD97A6884239B00101C191CFFF7EEFB00
:1008D0007B680433181C0021FFF7E8FB7B680C33AE
:1008E0000B4A181C111CFFF7E1FB7B6814331A1C20
:1008F00081231B02101C191CFFF7D8FB7B682033D7
:10090000181C0021FFF7D2FBBD4604B080BDC046D5
:10091000FFFF0000B0B584B000AF051C0C1C101C1C
:10092000191CBB1D2A1C1A803B1D221C1A80BB1CD3
:10093000021C1A803B1C0A1C1A800E23FB18002282
:100940001A800E23FB180E22B9183A1C0988128847
:100950000A431A803B1D1B885B019AB20E23FB18C9
:100960001B8813439AB20E23FB181A80BB1C1B88EA
:100970009B029AB20E23FB181B8813439AB20E23D4
:10098000FB181A80BB1D1B88DB029AB20E23FB18D2
:100990001B8813439AB20E23FB181A800E23FB18F0
:1009A0001B88181CBD4604B0B0BDC04690B587B0CA
:1009B00000AF78607B687B611323FB1800221A70FC
:1009C0007B687B611323FB1800221A707B687B61B4
:1009D00010E07A6998239B01101C191CFFF766FB35
:1009E0007B6920337B611323FB181322BA1812781A
:1009F00001321A701323FB181B78062BE9D97A6988
:100A0000C023DB00101C191CFFF750FB7B68183358
:100A10007B611323FB1800221A7014E01323FB18C8
:100A20001B780133DB001A1C7B69181C111CFFF7B3
:100A30003DFB7B6920337B611323FB181322BA181B
:100A4000127801321A701323FB181B78062BE5D994
:100A50007B6804337B611023FC18092001210022EC
:100A60000323FFF757FF031C23801023FB181B8869
:100A70007A69101C191CFFF719FB7B6844337B61F2
:100A80000E23FC180920012101221223FFF742FF47
:100A9000031C23800E23FB181B887A69101C191C69
:100AA000FFF704FB7B6864337B610C23FC1809208F
:100AB000022101221223FFF72DFF031C23800C23A8
:100AC000FB181B887A69101C191CFFF7EFFA7B686A
:100AD0000C337B611323FB1800221A7014E01323DC
:100AE000FB181B7808335B011A1C7B69181C111C4E
:100AF000FFF7DCFA7B6920337B611323FB18132299
:100B0000BA18127801321A701323FB181B78062BBF
:100B1000E5D9BD4607B090BD80B500AF00F006F83E
:100B20000020FFF777FBBD4680BDC04680B500AF13
:100B3000104B1B68002B08DD0E4B00221A600E4B79
:100B40001B685A1C0C4B1A6007E00A4B01221A6002
:100B50000A4B1B685A1C094B1A60094B00221A6089
:100B6000084B00221A60084B181CFFF745FCBD46D5
:100B700080BDC046340E0000480E0000500E00003C
:100B8000580E00004C0E00003C0E000080B588B0EE
:100B900002AF0423FB60FFF713FB7F4A7F49804BC2
:100BA0000093101C00220923FFF748FB7A4B181C06
:100BB000FFF7F8FB7B4AA0231B06101C191C02221E
:100BC000FFF742FC774B181C00210522FFF7C4FCFD
:100BD000754B181CFFF722FEC0231B06181CFFF7DD
:100BE0004BFE724B181CFFF7E1FE0020FFF7FEFAE8
:100BF000694B181CFFF7ACFB6D4B1B68002B56D1E3
:100C00006C4B1B68002B52D16B4B181CFFF750FA32
:100C1000031CBB60BB680122134023D0674B181C28
:100C2000FFF746FA031C7B60654B181C0021FFF799
:100C30003DFA7B681B041B0C624A101C191CFFF751
:100C400035FA614B181C5521FFF730FA574AAC238F
:100C5000DB01101C191CFFF729FA574B181C002147
:100C6000FFF724FA594B1B683F2B09DD574B002235
:100C70001A60574AAC23DB01101C191CFFF716FA47
:100C8000544B181C0021FFF711FA534A98239B017B
:100C9000101C191CFFF70AFAC0231B064F4A181C28
:100CA000111CFFF703FA434B01221A6072E0404B1C
:100CB0001B68012B6ED14A4B1B68002B6AD1454B38
:100CC000181CFFF7F5F9031C1B041B0C382B5ED115
:100CD000444B3B60444B3B611723FB1800221A70C6
:100CE00019E01723FB181B789B001A1C3B68D318CC
:100CF000181CFFF7DDF9021C3B69181C111CFFF7DB
:100D0000D5F93B6904333B611723FB181722BA1846
:100D1000127801321A701723FB181B78112BE0D9B7
:100D2000304B181CFFF7C4F9031CDBB2012213403F
:100D3000DBB21C4A101C00211A1CFFF745FC244A98
:100D400098239B01101C191CFFF7B0F9174A982330
:100D50009B01101C191CFFF7A9F9244B1B683F2BA2
:100D600015DD224B00221A601B4AAC23DB01101C4C
:100D7000191CFFF79BF9174B181C0021FFF796F978
:100D8000C0231B06154A181C111CFFF78FF9144BC2
:100D900000221A6030E7C0463C0E0000000300A0AD
:100DA000EE020000400E0000000C00A0000004C095
:100DB000340E00004C0E0000100B00A0140B00A01D
:100DC000000404C0040404C0080404C0480E000069
:100DD000400004C0200000C0600004C01082000079
:100DE000580E0000000504C0180B00A0500E0000B3
:100DF0002E2E2F647269766572732F436F7265545D
:100E0000696D65722F636F72655F74696D65722EAF
:100E1000630000002E2E2F647269766572732F4373
:100E20006F72654750494F2F636F72655F677069D6
:040E30006F2E6300BE
:040E340001000000B9
:0400000300000115E3
:00000001FF
